{
  "_format": "hh-sol-artifact-1",
  "contractName": "Mailbox",
  "sourceName": "contracts/Mailbox.sol",
  "abi": [
    {
      "inputs": [],
      "stateMutability": "nonpayable",
      "type": "constructor"
    },
    {
      "anonymous": false,
      "inputs": [
        {
          "indexed": true,
          "internalType": "address",
          "name": "previousOwner",
          "type": "address"
        },
        {
          "indexed": true,
          "internalType": "address",
          "name": "newOwner",
          "type": "address"
        }
      ],
      "name": "OwnershipTransferred",
      "type": "event"
    },
    {
      "anonymous": false,
      "inputs": [
        {
          "indexed": false,
          "internalType": "address",
          "name": "sender",
          "type": "address"
        },
        {
          "indexed": false,
          "internalType": "string",
          "name": "mailboxStorage",
          "type": "string"
        }
      ],
      "name": "RegisterUser",
      "type": "event"
    },
    {
      "anonymous": false,
      "inputs": [
        {
          "indexed": false,
          "internalType": "string",
          "name": "prevAddress",
          "type": "string"
        },
        {
          "indexed": false,
          "internalType": "string",
          "name": "currentAddress",
          "type": "string"
        },
        {
          "indexed": false,
          "internalType": "address",
          "name": "operator",
          "type": "address"
        }
      ],
      "name": "UpdatePendingInbox",
      "type": "event"
    },
    {
      "inputs": [
        {
          "internalType": "string",
          "name": "mailboxStorage",
          "type": "string"
        }
      ],
      "name": "addInbox",
      "outputs": [],
      "stateMutability": "nonpayable",
      "type": "function"
    },
    {
      "inputs": [
        {
          "internalType": "address",
          "name": "addr",
          "type": "address"
        }
      ],
      "name": "getInbox",
      "outputs": [
        {
          "internalType": "string",
          "name": "",
          "type": "string"
        }
      ],
      "stateMutability": "view",
      "type": "function"
    },
    {
      "inputs": [],
      "name": "owner",
      "outputs": [
        {
          "internalType": "address",
          "name": "",
          "type": "address"
        }
      ],
      "stateMutability": "view",
      "type": "function"
    },
    {
      "inputs": [],
      "name": "pendingInbox",
      "outputs": [
        {
          "internalType": "string",
          "name": "",
          "type": "string"
        }
      ],
      "stateMutability": "view",
      "type": "function"
    },
    {
      "inputs": [],
      "name": "renounceOwnership",
      "outputs": [],
      "stateMutability": "nonpayable",
      "type": "function"
    },
    {
      "inputs": [],
      "name": "totalInboxes",
      "outputs": [
        {
          "internalType": "uint256",
          "name": "",
          "type": "uint256"
        }
      ],
      "stateMutability": "view",
      "type": "function"
    },
    {
      "inputs": [
        {
          "internalType": "address",
          "name": "newOwner",
          "type": "address"
        }
      ],
      "name": "transferOwnership",
      "outputs": [],
      "stateMutability": "nonpayable",
      "type": "function"
    },
    {
      "inputs": [
        {
          "internalType": "string",
          "name": "inboxAddress",
          "type": "string"
        }
      ],
      "name": "updatePendingInbox",
      "outputs": [],
      "stateMutability": "nonpayable",
      "type": "function"
    }
  ],
  "bytecode": "0x608060405234801561001057600080fd5b5061002d61002261003a60201b60201c565b61004260201b60201c565b6000600381905550610106565b600033905090565b60008060009054906101000a900473ffffffffffffffffffffffffffffffffffffffff169050816000806101000a81548173ffffffffffffffffffffffffffffffffffffffff021916908373ffffffffffffffffffffffffffffffffffffffff1602179055508173ffffffffffffffffffffffffffffffffffffffff168173ffffffffffffffffffffffffffffffffffffffff167f8be0079c531659141344cd1fd0a4f28419497f9722a3daafe3b4186f6b6457e060405160405180910390a35050565b610f4e806101156000396000f3fe608060405234801561001057600080fd5b50600436106100885760003560e01c80638acb6f821161005b5780638acb6f82146101015780638da5cb5b1461011d578063f2fde38b1461013b578063fc993c111461015757610088565b8063022016811461008d578063397ac478146100bd57806361cc0b37146100d9578063715018a6146100f7575b600080fd5b6100a760048036038101906100a2919061092d565b610175565b6040516100b49190610b22565b60405180910390f35b6100d760048036038101906100d29190610956565b610246565b005b6100e1610393565b6040516100ee9190610be9565b60405180910390f35b6100ff61039d565b005b61011b60048036038101906101169190610956565b610425565b005b61012561058e565b6040516101329190610ad7565b60405180910390f35b6101556004803603810190610150919061092d565b6105b7565b005b61015f6106af565b60405161016c9190610b22565b60405180910390f35b6060600160008373ffffffffffffffffffffffffffffffffffffffff1673ffffffffffffffffffffffffffffffffffffffff16815260200190815260200160002080546101c190610d5f565b80601f01602080910402602001604051908101604052809291908181526020018280546101ed90610d5f565b801561023a5780601f1061020f5761010080835404028352916020019161023a565b820191906000526020600020905b81548152906001019060200180831161021d57829003601f168201915b50505050509050919050565b600060016000610254610741565b73ffffffffffffffffffffffffffffffffffffffff1673ffffffffffffffffffffffffffffffffffffffff168152602001908152602001600020805461029990610d5f565b9050146102db576040517f08c379a00000000000000000000000000000000000000000000000000000000081526004016102d290610bc9565b60405180910390fd5b80600160006102e8610741565b73ffffffffffffffffffffffffffffffffffffffff1673ffffffffffffffffffffffffffffffffffffffff168152602001908152602001600020908051906020019061033592919061080d565b506001600360008282546103499190610c8b565b925050819055507fc0089fbf2e0ee14d29fd81c7fb2347d1157d316f6be7a41ec9aea11a11f48bfb610379610741565b82604051610388929190610af2565b60405180910390a150565b6000600354905090565b6103a5610741565b73ffffffffffffffffffffffffffffffffffffffff166103c361058e565b73ffffffffffffffffffffffffffffffffffffffff1614610419576040517f08c379a000000000000000000000000000000000000000000000000000000000815260040161041090610ba9565b60405180910390fd5b6104236000610749565b565b61042d610741565b73ffffffffffffffffffffffffffffffffffffffff1661044b61058e565b73ffffffffffffffffffffffffffffffffffffffff16146104a1576040517f08c379a000000000000000000000000000000000000000000000000000000000815260040161049890610ba9565b60405180910390fd5b6000600280546104b090610d5f565b80601f01602080910402602001604051908101604052809291908181526020018280546104dc90610d5f565b80156105295780601f106104fe57610100808354040283529160200191610529565b820191906000526020600020905b81548152906001019060200180831161050c57829003601f168201915b50505050509050816002908051906020019061054692919061080d565b507f2a4f9b108824c2ee584942a4431372dc95a74b9db53344c491b364772b3c1990816002610573610741565b60405161058293929190610b44565b60405180910390a15050565b60008060009054906101000a900473ffffffffffffffffffffffffffffffffffffffff16905090565b6105bf610741565b73ffffffffffffffffffffffffffffffffffffffff166105dd61058e565b73ffffffffffffffffffffffffffffffffffffffff1614610633576040517f08c379a000000000000000000000000000000000000000000000000000000000815260040161062a90610ba9565b60405180910390fd5b600073ffffffffffffffffffffffffffffffffffffffff168173ffffffffffffffffffffffffffffffffffffffff1614156106a3576040517f08c379a000000000000000000000000000000000000000000000000000000000815260040161069a90610b89565b60405180910390fd5b6106ac81610749565b50565b6060600280546106be90610d5f565b80601f01602080910402602001604051908101604052809291908181526020018280546106ea90610d5f565b80156107375780601f1061070c57610100808354040283529160200191610737565b820191906000526020600020905b81548152906001019060200180831161071a57829003601f168201915b5050505050905090565b600033905090565b60008060009054906101000a900473ffffffffffffffffffffffffffffffffffffffff169050816000806101000a81548173ffffffffffffffffffffffffffffffffffffffff021916908373ffffffffffffffffffffffffffffffffffffffff1602179055508173ffffffffffffffffffffffffffffffffffffffff168173ffffffffffffffffffffffffffffffffffffffff167f8be0079c531659141344cd1fd0a4f28419497f9722a3daafe3b4186f6b6457e060405160405180910390a35050565b82805461081990610d5f565b90600052602060002090601f01602090048101928261083b5760008555610882565b82601f1061085457805160ff1916838001178555610882565b82800160010185558215610882579182015b82811115610881578251825591602001919060010190610866565b5b50905061088f9190610893565b5090565b5b808211156108ac576000816000905550600101610894565b5090565b60006108c36108be84610c29565b610c04565b9050828152602081018484840111156108db57600080fd5b6108e6848285610d1d565b509392505050565b6000813590506108fd81610f01565b92915050565b600082601f83011261091457600080fd5b81356109248482602086016108b0565b91505092915050565b60006020828403121561093f57600080fd5b600061094d848285016108ee565b91505092915050565b60006020828403121561096857600080fd5b600082013567ffffffffffffffff81111561098257600080fd5b61098e84828501610903565b91505092915050565b6109a081610ce1565b82525050565b60006109b182610c6f565b6109bb8185610c7a565b93506109cb818560208601610d2c565b6109d481610e4f565b840191505092915050565b600081546109ec81610d5f565b6109f68186610c7a565b94506001821660008114610a115760018114610a2357610a56565b60ff1983168652602086019350610a56565b610a2c85610c5a565b60005b83811015610a4e57815481890152600182019150602081019050610a2f565b808801955050505b50505092915050565b6000610a6c602683610c7a565b9150610a7782610e60565b604082019050919050565b6000610a8f602083610c7a565b9150610a9a82610eaf565b602082019050919050565b6000610ab2601683610c7a565b9150610abd82610ed8565b602082019050919050565b610ad181610d13565b82525050565b6000602082019050610aec6000830184610997565b92915050565b6000604082019050610b076000830185610997565b8181036020830152610b1981846109a6565b90509392505050565b60006020820190508181036000830152610b3c81846109a6565b905092915050565b60006060820190508181036000830152610b5e81866109a6565b90508181036020830152610b7281856109df565b9050610b816040830184610997565b949350505050565b60006020820190508181036000830152610ba281610a5f565b9050919050565b60006020820190508181036000830152610bc281610a82565b9050919050565b60006020820190508181036000830152610be281610aa5565b9050919050565b6000602082019050610bfe6000830184610ac8565b92915050565b6000610c0e610c1f565b9050610c1a8282610d91565b919050565b6000604051905090565b600067ffffffffffffffff821115610c4457610c43610e20565b5b610c4d82610e4f565b9050602081019050919050565b60008190508160005260206000209050919050565b600081519050919050565b600082825260208201905092915050565b6000610c9682610d13565b9150610ca183610d13565b9250827fffffffffffffffffffffffffffffffffffffffffffffffffffffffffffffffff03821115610cd657610cd5610dc2565b5b828201905092915050565b6000610cec82610cf3565b9050919050565b600073ffffffffffffffffffffffffffffffffffffffff82169050919050565b6000819050919050565b82818337600083830152505050565b60005b83811015610d4a578082015181840152602081019050610d2f565b83811115610d59576000848401525b50505050565b60006002820490506001821680610d7757607f821691505b60208210811415610d8b57610d8a610df1565b5b50919050565b610d9a82610e4f565b810181811067ffffffffffffffff82111715610db957610db8610e20565b5b80604052505050565b7f4e487b7100000000000000000000000000000000000000000000000000000000600052601160045260246000fd5b7f4e487b7100000000000000000000000000000000000000000000000000000000600052602260045260246000fd5b7f4e487b7100000000000000000000000000000000000000000000000000000000600052604160045260246000fd5b6000601f19601f8301169050919050565b7f4f776e61626c653a206e6577206f776e657220697320746865207a65726f206160008201527f6464726573730000000000000000000000000000000000000000000000000000602082015250565b7f4f776e61626c653a2063616c6c6572206973206e6f7420746865206f776e6572600082015250565b7f4d61696c626f7820616c72656164792065786973747300000000000000000000600082015250565b610f0a81610ce1565b8114610f1557600080fd5b5056fea26469706673582212200973bf03a331f186a1c083b82ac02c98780bd229faf53543e2199c405641ab3064736f6c63430008040033",
  "linkReferences": {},
  "deployedLinkReferences": {}
}