{
    "_format": "hh-sol-artifact-1",
    "contractName": "Mailbox",
    "sourceName": "contracts/Mailbox.sol",
    "abi": [
        {
            "inputs": [],
            "stateMutability": "nonpayable",
            "type": "constructor"
        },
        {
            "anonymous": false,
            "inputs": [
                {
                    "indexed": true,
                    "internalType": "address",
                    "name": "previousOwner",
                    "type": "address"
                },
                {
                    "indexed": true,
                    "internalType": "address",
                    "name": "newOwner",
                    "type": "address"
                }
            ],
            "name": "OwnershipTransferred",
            "type": "event"
        },
        {
            "anonymous": false,
            "inputs": [
                {
                    "indexed": false,
                    "internalType": "address",
                    "name": "sender",
                    "type": "address"
                },
                {
                    "indexed": false,
                    "internalType": "string",
                    "name": "mailboxStorage",
                    "type": "string"
                }
            ],
            "name": "RegisterUser",
            "type": "event"
        },
        {
            "anonymous": false,
            "inputs": [
                {
                    "indexed": false,
                    "internalType": "string",
                    "name": "prevAddress",
                    "type": "string"
                },
                {
                    "indexed": false,
                    "internalType": "string",
                    "name": "currentAddress",
                    "type": "string"
                },
                {
                    "indexed": false,
                    "internalType": "address",
                    "name": "operator",
                    "type": "address"
                }
            ],
            "name": "UpdatePendingInbox",
            "type": "event"
        },
        {
            "inputs": [
                {
                    "internalType": "string",
                    "name": "mailboxStorage",
                    "type": "string"
                }
            ],
            "name": "addInbox",
            "outputs": [],
            "stateMutability": "nonpayable",
            "type": "function"
        },
        {
            "inputs": [],
            "name": "getInbox",
            "outputs": [
                {
                    "internalType": "string",
                    "name": "",
                    "type": "string"
                }
            ],
            "stateMutability": "view",
            "type": "function"
        },
        {
            "inputs": [],
            "name": "owner",
            "outputs": [
                {
                    "internalType": "address",
                    "name": "",
                    "type": "address"
                }
            ],
            "stateMutability": "view",
            "type": "function"
        },
        {
            "inputs": [],
            "name": "pendingInbox",
            "outputs": [
                {
                    "internalType": "string",
                    "name": "",
                    "type": "string"
                }
            ],
            "stateMutability": "view",
            "type": "function"
        },
        {
            "inputs": [],
            "name": "renounceOwnership",
            "outputs": [],
            "stateMutability": "nonpayable",
            "type": "function"
        },
        {
            "inputs": [],
            "name": "totalInboxes",
            "outputs": [
                {
                    "internalType": "uint256",
                    "name": "",
                    "type": "uint256"
                }
            ],
            "stateMutability": "view",
            "type": "function"
        },
        {
            "inputs": [
                {
                    "internalType": "address",
                    "name": "newOwner",
                    "type": "address"
                }
            ],
            "name": "transferOwnership",
            "outputs": [],
            "stateMutability": "nonpayable",
            "type": "function"
        },
        {
            "inputs": [
                {
                    "internalType": "string",
                    "name": "inboxAddress",
                    "type": "string"
                }
            ],
            "name": "updatePendingInbox",
            "outputs": [],
            "stateMutability": "nonpayable",
            "type": "function"
        }
    ],
    "bytecode": "0x608060405234801561001057600080fd5b5061002d61002261003a60201b60201c565b61004260201b60201c565b6000600381905550610106565b600033905090565b60008060009054906101000a900473ffffffffffffffffffffffffffffffffffffffff169050816000806101000a81548173ffffffffffffffffffffffffffffffffffffffff021916908373ffffffffffffffffffffffffffffffffffffffff1602179055508173ffffffffffffffffffffffffffffffffffffffff168173ffffffffffffffffffffffffffffffffffffffff167f8be0079c531659141344cd1fd0a4f28419497f9722a3daafe3b4186f6b6457e060405160405180910390a35050565b610e40806101156000396000f3fe608060405234801561001057600080fd5b50600436106100885760003560e01c80638acb6f821161005b5780638acb6f82146100ef5780638da5cb5b1461010b578063f2fde38b14610129578063fc993c111461014557610088565b8063368c093c1461008d578063397ac478146100ab57806361cc0b37146100c7578063715018a6146100e5575b600080fd5b610095610163565b6040516100a29190610a5d565b60405180910390f35b6100c560048036038101906100c091906108b4565b610239565b005b6100cf6102f1565b6040516100dc9190610b04565b60405180910390f35b6100ed6102fb565b005b610109600480360381019061010491906108b4565b610383565b005b6101136104ec565b6040516101209190610a12565b60405180910390f35b610143600480360381019061013e919061088b565b610515565b005b61014d61060d565b60405161015a9190610a5d565b60405180910390f35b60606001600061017161069f565b73ffffffffffffffffffffffffffffffffffffffff1673ffffffffffffffffffffffffffffffffffffffff16815260200190815260200160002080546101b690610c7a565b80601f01602080910402602001604051908101604052809291908181526020018280546101e290610c7a565b801561022f5780601f106102045761010080835404028352916020019161022f565b820191906000526020600020905b81548152906001019060200180831161021257829003601f168201915b5050505050905090565b806001600061024661069f565b73ffffffffffffffffffffffffffffffffffffffff1673ffffffffffffffffffffffffffffffffffffffff168152602001908152602001600020908051906020019061029392919061076b565b506001600360008282546102a79190610ba6565b925050819055507fc0089fbf2e0ee14d29fd81c7fb2347d1157d316f6be7a41ec9aea11a11f48bfb6102d761069f565b826040516102e6929190610a2d565b60405180910390a150565b6000600354905090565b61030361069f565b73ffffffffffffffffffffffffffffffffffffffff166103216104ec565b73ffffffffffffffffffffffffffffffffffffffff1614610377576040517f08c379a000000000000000000000000000000000000000000000000000000000815260040161036e90610ae4565b60405180910390fd5b61038160006106a7565b565b61038b61069f565b73ffffffffffffffffffffffffffffffffffffffff166103a96104ec565b73ffffffffffffffffffffffffffffffffffffffff16146103ff576040517f08c379a00000000000000000000000000000000000000000000000000000000081526004016103f690610ae4565b60405180910390fd5b60006002805461040e90610c7a565b80601f016020809104026020016040519081016040528092919081815260200182805461043a90610c7a565b80156104875780601f1061045c57610100808354040283529160200191610487565b820191906000526020600020905b81548152906001019060200180831161046a57829003601f168201915b5050505050905081600290805190602001906104a492919061076b565b507f2a4f9b108824c2ee584942a4431372dc95a74b9db53344c491b364772b3c19908160026104d161069f565b6040516104e093929190610a7f565b60405180910390a15050565b60008060009054906101000a900473ffffffffffffffffffffffffffffffffffffffff16905090565b61051d61069f565b73ffffffffffffffffffffffffffffffffffffffff1661053b6104ec565b73ffffffffffffffffffffffffffffffffffffffff1614610591576040517f08c379a000000000000000000000000000000000000000000000000000000000815260040161058890610ae4565b60405180910390fd5b600073ffffffffffffffffffffffffffffffffffffffff168173ffffffffffffffffffffffffffffffffffffffff161415610601576040517f08c379a00000000000000000000000000000000000000000000000000000000081526004016105f890610ac4565b60405180910390fd5b61060a816106a7565b50565b60606002805461061c90610c7a565b80601f016020809104026020016040519081016040528092919081815260200182805461064890610c7a565b80156106955780601f1061066a57610100808354040283529160200191610695565b820191906000526020600020905b81548152906001019060200180831161067857829003601f168201915b5050505050905090565b600033905090565b60008060009054906101000a900473ffffffffffffffffffffffffffffffffffffffff169050816000806101000a81548173ffffffffffffffffffffffffffffffffffffffff021916908373ffffffffffffffffffffffffffffffffffffffff1602179055508173ffffffffffffffffffffffffffffffffffffffff168173ffffffffffffffffffffffffffffffffffffffff167f8be0079c531659141344cd1fd0a4f28419497f9722a3daafe3b4186f6b6457e060405160405180910390a35050565b82805461077790610c7a565b90600052602060002090601f01602090048101928261079957600085556107e0565b82601f106107b257805160ff19168380011785556107e0565b828001600101855582156107e0579182015b828111156107df5782518255916020019190600101906107c4565b5b5090506107ed91906107f1565b5090565b5b8082111561080a5760008160009055506001016107f2565b5090565b600061082161081c84610b44565b610b1f565b90508281526020810184848401111561083957600080fd5b610844848285610c38565b509392505050565b60008135905061085b81610df3565b92915050565b600082601f83011261087257600080fd5b813561088284826020860161080e565b91505092915050565b60006020828403121561089d57600080fd5b60006108ab8482850161084c565b91505092915050565b6000602082840312156108c657600080fd5b600082013567ffffffffffffffff8111156108e057600080fd5b6108ec84828501610861565b91505092915050565b6108fe81610bfc565b82525050565b600061090f82610b8a565b6109198185610b95565b9350610929818560208601610c47565b61093281610d6a565b840191505092915050565b6000815461094a81610c7a565b6109548186610b95565b9450600182166000811461096f5760018114610981576109b4565b60ff19831686526020860193506109b4565b61098a85610b75565b60005b838110156109ac5781548189015260018201915060208101905061098d565b808801955050505b50505092915050565b60006109ca602683610b95565b91506109d582610d7b565b604082019050919050565b60006109ed602083610b95565b91506109f882610dca565b602082019050919050565b610a0c81610c2e565b82525050565b6000602082019050610a2760008301846108f5565b92915050565b6000604082019050610a4260008301856108f5565b8181036020830152610a548184610904565b90509392505050565b60006020820190508181036000830152610a778184610904565b905092915050565b60006060820190508181036000830152610a998186610904565b90508181036020830152610aad818561093d565b9050610abc60408301846108f5565b949350505050565b60006020820190508181036000830152610add816109bd565b9050919050565b60006020820190508181036000830152610afd816109e0565b9050919050565b6000602082019050610b196000830184610a03565b92915050565b6000610b29610b3a565b9050610b358282610cac565b919050565b6000604051905090565b600067ffffffffffffffff821115610b5f57610b5e610d3b565b5b610b6882610d6a565b9050602081019050919050565b60008190508160005260206000209050919050565b600081519050919050565b600082825260208201905092915050565b6000610bb182610c2e565b9150610bbc83610c2e565b9250827fffffffffffffffffffffffffffffffffffffffffffffffffffffffffffffffff03821115610bf157610bf0610cdd565b5b828201905092915050565b6000610c0782610c0e565b9050919050565b600073ffffffffffffffffffffffffffffffffffffffff82169050919050565b6000819050919050565b82818337600083830152505050565b60005b83811015610c65578082015181840152602081019050610c4a565b83811115610c74576000848401525b50505050565b60006002820490506001821680610c9257607f821691505b60208210811415610ca657610ca5610d0c565b5b50919050565b610cb582610d6a565b810181811067ffffffffffffffff82111715610cd457610cd3610d3b565b5b80604052505050565b7f4e487b7100000000000000000000000000000000000000000000000000000000600052601160045260246000fd5b7f4e487b7100000000000000000000000000000000000000000000000000000000600052602260045260246000fd5b7f4e487b7100000000000000000000000000000000000000000000000000000000600052604160045260246000fd5b6000601f19601f8301169050919050565b7f4f776e61626c653a206e6577206f776e657220697320746865207a65726f206160008201527f6464726573730000000000000000000000000000000000000000000000000000602082015250565b7f4f776e61626c653a2063616c6c6572206973206e6f7420746865206f776e6572600082015250565b610dfc81610bfc565b8114610e0757600080fd5b5056fea26469706673582212208f30476f06aacac3a8800ddbb333d31f39b3647dd50f5f9e395aba84fc9cfe5f64736f6c63430008040033",
    "linkReferences": {},
    "deployedLinkReferences": {}
}